:100000000EC028C028C044C025C024C023C022C0C0
:1000100021C020C01FC01EC01DC01CC01BC0112499
:100020001FBECFE5D2E0DEBFCDBF10E0A0E6B0E05E
:10003000E0E6F3E002C005900D92AE36B107D9F7C5
:1000400010E0AEE6B0E001C01D92A838B107E1F7BC
:10005000BED084C1D5CF1F920F920FB60F9211243C
:100060008F939F938FB590E0909377008093760065
:1000700008B606FE06C080EF90E09093770080936C
:1000800076009F918F910F900FBE0F901F90189543
:100090001F920F920FB60F9211248F939F9380EFB0
:1000A00090E0909377008093760089B78F7B89BF2B
:1000B0009F918F910F900FBE0F901F901895FC018C
:1000C000DB018D919C91119724E08030920708F01C
:1000D0003AC0BB9AC398109277001092760089B705
:1000E000806489BF1FBCBB9888E085BB88958091E0
:1000F0007600909177000097C9F3809176009091F7
:10010000770091838083BB9AC398109277001092F6
:10011000760089B78F7B89BF1FBCBB9888E085BB01
:10012000889580917600909177000097C9F320918F
:1001300076003091770080819181820F931F9183A7
:100140008083BB9AC39812968D919C91139724E05B
:100150008030920708F03AC0BC9AC4981092770099
:100160001092760089B7806489BF1FBCBC9880E17B
:1001700085BB889580917600909177000097C9F3B0
:10018000809176009091770093838283BC9AC49883
:10019000109277001092760089B78F7B89BF1FBCC1
:1001A000BC9880E185BB889580917600909177001E
:1001B0000097C9F320917600309177008281938176
:1001C000820F931F93838283BC9AC49808951F93D0
:1001D000CF93DF93F89480E886BD16BC83E080BFA0
:1001E00080EF8EBDBA9A789485B7806285BF8FE420
:1001F00093EC0197F1F700C0000080E189BD8BB757
:1002000080628BBF82E790E06EE770E058DF82E7A4
:1002100090E06EE770E053DF82E790E06EE770E019
:100220004EDF82E790E06EE770E049DF82E790E022
:100230006EE770E044DFCFEFD0E014E088E790E0B5
:1002400062E770E03CDF2091780030917900809186
:10025000720090917300281B390B30937D0020931E
:100260007C0080917A0090917B00409174005091C5
:100270007500841B950B90936F0080936E0037FF81
:1002800004C010927D0010927C0097FF04C0109271
:100290006F0010926E0080917C0090917D008F3FE6
:1002A000910529F024F0D0937D00C0937C008091CB
:1002B0006E0090916F008F3F910529F024F0D0934C
:1002C0006F00C0936E0080917C0090917D008F3113
:1002D00091053CF480916E0090916F008F319105F3
:1002E00014F0C298ABCF88B3812788BB8FE39DE021
:1002F000A3E081509040A040E1F700C000009ECFF5
:10030000769BFECF8FB980E48EB90895F9DF08950A
:100310008A3010F4805D01C0895CF2DF08951F937C
:10032000182F82958F70F4DF812F8F70F1DF1F916E
:1003300008951F93182F892FF2DF812FF0DF1F916F
:10034000089587B38A7F87BBB99A88E18DB980E623
:1003500090E090938500809384000895F894FFCFF7
:0E036000000000020000000086010000000006
:00000001FF
