:1000000034C070C04DC04CC04BC04AC049C048C08D
:1000100047C046C045C044C043C042C041C040C0C4
:100020003FC000CDD914F13C28E5A16C78B5509DB6
:1000300089441003550053004200740069006E00AB
:10004000790012010101FF00000881179F0C0401D3
:1000500000020001090212000101008032090400BF
:100060000000FF0000000403090411241FBECFE5B7
:10007000D1E0DEBFCDBF10E0A0E6B0E0ECE6F8E0F6
:1000800002C005900D92A236B107D9F710E0A2E6A2
:10009000B0E001C01D92AE39B107E1F7DED3E4C391
:1000A000AFCFDC019FEF8FEF660FB9F042E2F0E0D7
:1000B000229560FF2D91E82FE227EF7092958295AF
:1000C0008F70392F307F832B9F70E40F35919327EA
:1000D0003170932783276A9559F7809590958D9372
:1000E0009D9308950F931F932F93DF93CF930FB793
:1000F0000F93CA99FECFCA990BC0CA9909C0CA9971
:1001000007C0CA9905C0CA9903C000E40ABFA8C0C5
:10011000C0918600DD27C957DF4F0BE01CE024E0CB
:10012000CA9BE9CF3F934F936F9369B330E803C005
:1001300069B3432B499344276C702627215029B378
:100140002C70A9F137953C3FA0F56227615069B347
:100150006C7037953C3F98F526272150379529B389
:100160002C703C3F90F56227615037953C3F69B356
:100170006C70A0F52627215037953C3FC8F529B370
:100180002C706227615037953C3FB0F50A9569B3F2
:100190007AF06C702627215037953C3F88F529B3BB
:1001A0002C706227615037953C3F10F22DC031C052
:1001B00048C0612729B32C703F774160C6CF3F7795
:1001C000426069B36C702127C7CF3F7744606127D5
:1001D00029B32C70622761503795C8CF3F774860AC
:1001E0002127316069B36C70262721503795C6CF1F
:1001F0003F7740616127C1CF3F7740622127C4CF5D
:100200003F7740646127C9CF3F774068212700C00E
:100210008FCF30E43ABF0B500195033090F0C01BF4
:100220002881233C91F12B3481F119811F77409172
:100230009D00141731F42936D9F02D3249F0213EB2
:1002400039F04427409362006F914F913F9108C06D
:10025000209362006F914F913F910AB706FD49CFFD
:100260000F910FBFCF91DF912F911F910F91189593
:10027000009178000023F1F0409185004423D1F4EF
:1002800040937800C9E7D0E018C020916200222393
:10029000C1F240918500442369F4009385002093C6
:1002A0008400009186004BE0401B40938600C0E62E
:1002B000D0E002C0C1E6D0E001E02BB3237F28608C
:1002C0001AB31C602BBB1ABB1CE030E830FF21279F
:1002D0002BBB379547954C3FC0F530FF212737950D
:1002E0002BBB47954C3FA8F530FF212737950000E1
:1002F0002BBB47954C3F78F530FF21273795000001
:100300002BBB47954C3F48F530FF212769912BBB0C
:10031000379547954C3F18F530FF212737952BBB74
:1003200047954C3F00F530FF2127379547952BBB6C
:100330004C3FD8F430FF21273795362F47952BBBFC
:100340004C3FA8F40A9512F614C0212744272BBB72
:10035000C2CF2127C5CF2127CBCF2127D1CF21271E
:1003600044272BBBD7CF2127DACF2127DFCF212767
:10037000E5CF237F2BBB6F914F913F9100E40ABFE4
:10038000DF91CF911AB3022F28602BBB137FDFBF01
:10039000DF912F9100001ABB0BBB1F910F91189595
:1003A00085B7836085BF8BB780648BBF78940895D1
:1003B0001F93CF93DF9360918500662309F470C08B
:1003C00080918600CCE0D0E0C81BD109C957DF4F2F
:1003D00081E080936300809184008D3209F052C0E7
:1003E0001E818F8181111FEF88818076D9F58981E7
:1003F000882321F41882198292E03CC0853021F4D0
:100400008A8180936700AEC0863009F582E08093D0
:1004100063008B81813021F492E1C2E4D0E02AC0F4
:10042000823021F492E1C4E5D0E024C0833009F0A9
:1004300099C08A81882321F494E0C6E6D0E01AC0EE
:10044000823009F08FC090E1C2E3D0E013C0883061
:1004500019F481E0888304C08A3009F083C01882CF
:1004600091E008C0CE01EBD0982F8F3F19F483E0C4
:1004700080936300191708F0192FD0936600C0937A
:10048000650005C0635011F0CE018DD110E01093CE
:10049000640083EC809379001092780010928500BC
:1004A00080917800882309F053C0209163002223B3
:1004B00009F44AC08091790098E8892780937900EF
:1004C00010916400193010F018E002C0112379F186
:1004D000233031F48AE790E0612F50D1182F22C0E9
:1004E0003091650040916600213061F4832F942F94
:1004F000FC01AAE7B0E081918D938E2F831B8117B9
:10050000D0F30CC0832F942FFC01AAE7B0E08491B4
:1005100031968D938E2F831B8117C8F3F09366005D
:10052000E093650080916400811B809364008AE7FA
:1005300090E0612FB6DD1D5F1093780013501830E6
:1005400038F41092630004C08091670080939D008E
:100550008AE002C0815019F0CB9BFCCF05C01092FD
:10056000670002C090E088CFDF91CF911F9108957E
:100570001F93FC01DB017091680023C0108190E0A3
:1005800060E820E030E0862F812309F0DE9A072E14
:1005900000C000000A94E1F7DC9A072E00C00000BA
:1005A0000A94E1F7990FCD999F5FDE98DC986695E4
:1005B0002F5F3F4F2830310531F741505040319681
:1005C0009D9341155105D1F61F91089520916B001F
:1005D00030916C002F5F3F4F30936C0020936B0085
:1005E0002150304080916F0087FF02C0220F331FDF
:1005F0008093700020FF03C0886080937000832F79
:10060000869580937100369527952093720080E738
:1006100090E064E770E044E050E0AADF0895282FFE
:10062000982F80FD02C082E001C083E094FD8068C5
:1006300095FD806496FD806227FD80610895EF92AC
:10064000FF920F931F93CF93DF93EC011981112336
:1006500011F488E08CC022E0E22EF12CE80EF91EA5
:100660000A81802F877021E030E002C0220F331F03
:100670008A95E2F7143031F4822FD1DF9BB3982BA7
:10068000926029C0133039F4822FC9DF9BB3809563
:100690008260982320C0123021F4802FC0DF826056
:1006A00022C0113019F489B3888332C01D3029F477
:1006B000802FB5DF82608ABB18C0153071F40093BB
:1006C0006800D898D09A8C81882311F092E801C0F4
:1006D00092E082ED8ABB9BBB49C0163031F4D898BA
:1006E000D09A82E08ABB8BBB41C08BB38823F1F1E7
:1006F000173039F4C701BE0144E050E039DF84E02F
:1007000036C01E3039F4C701BE0141E050E030DF91
:1007100081E02DC0183031F4009369008B81809303
:100720006A0024C08C819D8190936C0080936B0043
:10073000193011F480E203C01B3039F480EA809351
:100740006F00D89AD09A8FEF12C08A819B819093C4
:100750006E0080936D001A3011F480E403C01C30E9
:1007600029F480EC80936F00D89AD09A80E0DF91D2
:10077000CF911F910F91FF90EF9008950F931F93CA
:10078000CF93DF93062FEC0110E005C01FDF8091AF
:10079000770089931F5F1017C8F3802FDF91CF91E7
:1007A0001F910F9108957F928F929F92AF92BF9267
:1007B000CF92DF92EF92FF920F931F93CF93DF932D
:1007C000862EA0906D00B0906E0090906900C09051
:1007D0006A0020916800E22EFF2445E0EE0CFF1C29
:1007E0004A95E1F78C01DD2430E6732E26C0F8012E
:1007F000808180937300EADE80917000872580936A
:100800007000C0E0D0E013C080E790E064E770E0E3
:1008100044E050E0ADDE909177008091730098172E
:1008200021F4991511F09C1529F4CE0DDF1DCA1580
:10083000DB0550F3D3940F5F1F4FD814C0F2DF9144
:10084000CF911F910F91FF90EF90DF90CF90BF90CD
:10085000AF909F908F907F90089583E08ABB82E055
:0C0860008BBB9EDDA5DDFECFF894FFCF22
:02086C00D25A5E
:00000001FF
