:100000000EC028C028C044C025C024C023C022C0C0
:1000100021C020C01FC01EC01DC01CC01BC0112499
:100020001FBECFE5D2E0DEBFCDBF10E0A0E6B0E05E
:10003000EEECF1E002C005900D92A637B107D9F7BA
:1000400010E0A6E7B0E001C01D92A038B107E1F7CB
:1000500033D0BBC0D5CF1F920F920FB60F92112491
:100060008F939F938FB590E0909379008093780061
:1000700008B606FE06C080EF90E09093790080936A
:1000800078009F918F910F900FBE0F901F90189541
:100090001F920F920FB60F9211248F939F9380EFB0
:1000A00090E090937900809378009F918F910F90CA
:1000B0000FBE0F901F901895CF92DF92FF920F9373
:1000C0001F93DF93CF930F92CDB7DEB7F89480E8FC
:1000D00086BD16BC8FEF81BF6BD0789482E080BF65
:1000E00089B7806489BF80EF8EBD85B7806285BF88
:1000F0008BB780628BBFBC9AC39800E002C037D038
:100100000F5FE02FF0E0E05AFF4F80818823B9F7BE
:10011000109279001092780090E000E010E088E002
:10012000F82E02C0CC24DD24BB9AC49A8C2D99836E
:100130002DD08AE01CD0BB98C4981FBC88B78064BF
:1001400088BFF5BA889599819A3030F49F5F009105
:10015000780010917900E8CFC0907800D0907900B5
:10016000C01AD10A21EFC216D104E0F6DDCF769B8A
:10017000FECF8FB980E48EB90895F9DF08958A30F3
:1001800010F4805D01C0895CF2DF08951F93182F81
:1001900082958F70F4DF812F8F70F1DF1F910895AA
:1001A0001F93182F892FF2DF812FF0DF1F91089501
:1001B00087B38A7F87BBB99A88E18DB987E690E0DB
:0E01C00090937D0080937C000895F894FFCF0B
:1001CE004D41524B3A20000000000200000000BDDD
:0601DE000000000000001B
:00000001FF
