:100000000EC028C028C044C025C024C023C022C0C0
:1000100021C020C01FC01EC01DC01CC01BC0112499
:100020001FBECFE5D2E0DEBFCDBF10E0A0E6B0E05E
:10003000EEE3F2E002C005900D92AE36B107D9F7BB
:1000400010E0AEE6B0E001C01D92A438B107E1F7C0
:10005000A4D0F3C0D5CF1F920F920FB60F921124E8
:100060008F939F938FB590E0909375008093740069
:1000700008B606FE06C080EF90E09093750080936E
:1000800074009F918F910F900FBE0F901F90189545
:100090001F920F920FB60F9211248F939F9380EFB0
:1000A00090E0909375008093740089B78F7B89BF2F
:1000B0009F918F910F900FBE0F901F901895FC018C
:1000C000DB018D919C91119724E08030920770F5AF
:1000D000BB9AC398109275001092740089B780641F
:1000E00089BF1FBCBB9888E085BB88958091740050
:1000F0009091750091838083BB9AC398109275008C
:100100001092740089B7806489BF1FBCBB9888E0D7
:1001100085BB889520917400309175008081918114
:10012000820F931F91838083BB9AC39812968D91FF
:100130009C91139724E08030920770F5BC9AC49884
:10014000109275001092740089B7806489BF1FBC3B
:10015000BC9880E185BB8895809174009091750072
:1001600093838283BC9AC498109275001092740095
:1001700089B7806489BF1FBCBC9880E185BB889526
:10018000209174003091750082819381820F931FBA
:1001900093838283BC9AC4980895F89480E886BDBE
:1001A00016BC8FEF81BF3CD0789483E080BF80EF96
:1001B0008EBD85B7806285BFBC9AC398BB9AC49A2E
:1001C00087E893E10197F1F700C00000BB98C4985D
:1001D00087E893E10197F1F700C00000EFCF769B2D
:1001E000FECF8FB980E48EB90895F9DF08958A3083
:1001F00010F4805D01C0895CF2DF08951F93182F11
:1002000082958F70F4DF812F8F70F1DF1F91089539
:100210001F93182F892FF2DF812FF0DF1F91089590
:1002200087B38A7F87BBB99A88E18DB980E690E071
:0E02300090938100809380000895F894FFCF92
:0E023E000000000200000000F50000000000BB
:00000001FF
